{
  "contractName": "eocContract",
  "abi": [
    {
      "constant": true,
      "inputs": [
        {
          "name": "",
          "type": "uint256"
        }
      ],
      "name": "payerExitQueue",
      "outputs": [
        {
          "name": "payer",
          "type": "address"
        },
        {
          "name": "payee",
          "type": "address"
        },
        {
          "name": "remain",
          "type": "uint256"
        },
        {
          "name": "requestTime",
          "type": "uint256"
        }
      ],
      "payable": false,
      "stateMutability": "view",
      "type": "function"
    },
    {
      "constant": true,
      "inputs": [],
      "name": "commitNonce",
      "outputs": [
        {
          "name": "",
          "type": "uint256"
        }
      ],
      "payable": false,
      "stateMutability": "view",
      "type": "function"
    },
    {
      "constant": true,
      "inputs": [
        {
          "name": "",
          "type": "uint256"
        }
      ],
      "name": "commits",
      "outputs": [
        {
          "name": "payer",
          "type": "address"
        },
        {
          "name": "payee",
          "type": "address"
        },
        {
          "name": "amount",
          "type": "uint256"
        },
        {
          "name": "preimage",
          "type": "bytes32"
        }
      ],
      "payable": false,
      "stateMutability": "view",
      "type": "function"
    },
    {
      "inputs": [],
      "payable": false,
      "stateMutability": "nonpayable",
      "type": "constructor"
    },
    {
      "anonymous": false,
      "inputs": [
        {
          "indexed": false,
          "name": "payer",
          "type": "address"
        },
        {
          "indexed": false,
          "name": "payee",
          "type": "address"
        },
        {
          "indexed": false,
          "name": "value",
          "type": "uint256"
        },
        {
          "indexed": false,
          "name": "preimage",
          "type": "bytes32"
        },
        {
          "indexed": false,
          "name": "commitNonce",
          "type": "uint256"
        }
      ],
      "name": "commited",
      "type": "event"
    },
    {
      "anonymous": false,
      "inputs": [
        {
          "indexed": false,
          "name": "result",
          "type": "string"
        }
      ],
      "name": "returning",
      "type": "event"
    },
    {
      "anonymous": false,
      "inputs": [
        {
          "indexed": false,
          "name": "payer",
          "type": "address"
        },
        {
          "indexed": false,
          "name": "payee",
          "type": "address"
        },
        {
          "indexed": false,
          "name": "remain",
          "type": "uint256"
        },
        {
          "indexed": false,
          "name": "requestTime",
          "type": "uint256"
        }
      ],
      "name": "payerExitRequested",
      "type": "event"
    },
    {
      "anonymous": false,
      "inputs": [
        {
          "indexed": false,
          "name": "payer",
          "type": "address"
        },
        {
          "indexed": false,
          "name": "payee",
          "type": "address"
        },
        {
          "indexed": false,
          "name": "value",
          "type": "uint256"
        }
      ],
      "name": "finalizePayerExit",
      "type": "event"
    },
    {
      "anonymous": false,
      "inputs": [
        {
          "indexed": false,
          "name": "payer",
          "type": "address"
        },
        {
          "indexed": false,
          "name": "payee",
          "type": "address"
        },
        {
          "indexed": false,
          "name": "value",
          "type": "uint256"
        },
        {
          "indexed": false,
          "name": "remainTime",
          "type": "uint256"
        }
      ],
      "name": "payerExitFailed",
      "type": "event"
    },
    {
      "constant": false,
      "inputs": [
        {
          "name": "payer",
          "type": "address"
        },
        {
          "name": "payee",
          "type": "address"
        },
        {
          "name": "preimage",
          "type": "bytes32"
        }
      ],
      "name": "commit",
      "outputs": [],
      "payable": true,
      "stateMutability": "payable",
      "type": "function"
    },
    {
      "constant": true,
      "inputs": [
        {
          "name": "nonce",
          "type": "uint256"
        }
      ],
      "name": "getcommit",
      "outputs": [
        {
          "components": [
            {
              "name": "payer",
              "type": "address"
            },
            {
              "name": "payee",
              "type": "address"
            },
            {
              "name": "amount",
              "type": "uint256"
            },
            {
              "name": "preimage",
              "type": "bytes32"
            }
          ],
          "name": "",
          "type": "tuple"
        }
      ],
      "payable": false,
      "stateMutability": "view",
      "type": "function"
    },
    {
      "constant": true,
      "inputs": [],
      "name": "getcommitNonce",
      "outputs": [
        {
          "name": "",
          "type": "uint256"
        }
      ],
      "payable": false,
      "stateMutability": "view",
      "type": "function"
    },
    {
      "constant": false,
      "inputs": [
        {
          "name": "x",
          "type": "address"
        }
      ],
      "name": "AddressToString",
      "outputs": [
        {
          "name": "",
          "type": "string"
        }
      ],
      "payable": false,
      "stateMutability": "nonpayable",
      "type": "function"
    },
    {
      "constant": true,
      "inputs": [
        {
          "name": "received",
          "type": "uint256"
        },
        {
          "name": "proof",
          "type": "bytes32"
        }
      ],
      "name": "getcalc_proof",
      "outputs": [
        {
          "name": "",
          "type": "bytes32"
        }
      ],
      "payable": false,
      "stateMutability": "view",
      "type": "function"
    },
    {
      "constant": false,
      "inputs": [
        {
          "name": "nonce",
          "type": "uint256"
        },
        {
          "name": "received",
          "type": "uint256"
        },
        {
          "name": "proof",
          "type": "bytes32"
        }
      ],
      "name": "startPayeeExit",
      "outputs": [],
      "payable": true,
      "stateMutability": "payable",
      "type": "function"
    },
    {
      "constant": false,
      "inputs": [
        {
          "name": "nonce",
          "type": "uint256"
        },
        {
          "name": "remain",
          "type": "uint256"
        }
      ],
      "name": "startPayerExit",
      "outputs": [],
      "payable": false,
      "stateMutability": "nonpayable",
      "type": "function"
    },
    {
      "constant": true,
      "inputs": [
        {
          "name": "nonce",
          "type": "uint256"
        }
      ],
      "name": "getPayerExitQueue",
      "outputs": [
        {
          "components": [
            {
              "name": "payer",
              "type": "address"
            },
            {
              "name": "payee",
              "type": "address"
            },
            {
              "name": "remain",
              "type": "uint256"
            },
            {
              "name": "requestTime",
              "type": "uint256"
            }
          ],
          "name": "",
          "type": "tuple"
        }
      ],
      "payable": false,
      "stateMutability": "view",
      "type": "function"
    },
    {
      "constant": false,
      "inputs": [
        {
          "name": "nonce",
          "type": "uint256"
        }
      ],
      "name": "finalize",
      "outputs": [],
      "payable": true,
      "stateMutability": "payable",
      "type": "function"
    },
    {
      "constant": false,
      "inputs": [
        {
          "name": "nonce",
          "type": "uint256"
        },
        {
          "name": "received",
          "type": "uint256"
        },
        {
          "name": "proof",
          "type": "bytes32"
        }
      ],
      "name": "challengeExit",
      "outputs": [],
      "payable": true,
      "stateMutability": "payable",
      "type": "function"
    }
  ],
  "bytecode": "0x6080604052600160005534801561001557600080fd5b5060016000819055506120068061002d6000396000f3fe6080604052600436106100c25760003560e01c806396b5b8131161007f578063c7c4a61511610059578063c7c4a61514610266578063d1c22c84146102a6578063d3be5829146102d1578063d84060a0146102ed576100c2565b806396b5b813146101be5780639fc0ef10146101fe578063a94089c914610229576100c2565b806305261aea146100c75780631511131c146100e3578063466359651461010c57806368352ade146101285780638973ed3a146101655780638f6e6893146101a2575b600080fd5b6100e160048036036100dc9190810190611576565b61032a565b005b3480156100ef57600080fd5b5061010a600480360361010591908101906115db565b61058c565b005b61012660048036036101219190810190611617565b61087e565b005b34801561013457600080fd5b5061014f600480360361014a9190810190611576565b610bd4565b60405161015c9190611e59565b60405180910390f35b34801561017157600080fd5b5061018c600480360361018791908101906114fe565b610cc1565b6040516101999190611c9c565b60405180910390f35b6101bc60048036036101b79190810190611617565b610d88565b005b3480156101ca57600080fd5b506101e560048036036101e09190810190611576565b61108b565b6040516101f59493929190611b5f565b60405180910390f35b34801561020a57600080fd5b506102136110fb565b6040516102209190611e74565b60405180910390f35b34801561023557600080fd5b50610250600480360361024b919081019061159f565b611101565b60405161025d9190611c81565b60405180910390f35b34801561027257600080fd5b5061028d60048036036102889190810190611576565b611156565b60405161029d9493929190611be9565b60405180910390f35b3480156102b257600080fd5b506102bb6111c6565b6040516102c89190611e74565b60405180910390f35b6102eb60048036036102e69190810190611527565b6111cf565b005b3480156102f957600080fd5b50610314600480360361030f9190810190611576565b611327565b6040516103219190611e3e565b60405180910390f35b60006002600083815260200190815260200160002060000160009054906101000a900473ffffffffffffffffffffffffffffffffffffffff16905060006002600084815260200190815260200160002060010160009054906101000a900473ffffffffffffffffffffffffffffffffffffffff1690506000600260008581526020019081526020016000206002015490506000600160008681526020019081526020016000206002015490506000600260008781526020019081526020016000206003015442039050600062093a8090503373ffffffffffffffffffffffffffffffffffffffff168673ffffffffffffffffffffffffffffffffffffffff1614610469576040517f08c379a000000000000000000000000000000000000000000000000000000000815260040161046090611d3e565b60405180910390fd5b600084840310156104af576040517f08c379a00000000000000000000000000000000000000000000000000000000081526004016104a690611e1e565b60405180910390fd5b80821061053d578573ffffffffffffffffffffffffffffffffffffffff166108fc859081150290604051600060405180830381858888f193505050501580156104fc573d6000803e3d6000fd5b507f85349eb6c6edbfdf9b02cec2060c5541d71c902c6522be973d1f5ec07f7720ef86868660405161053093929190611b28565b60405180910390a1610583565b600082820390507f3f853dae2280195f5737eaf136dff4513f2c941ec208b57a06b586230015a277878787846040516105799493929190611ba4565b60405180910390a1505b50505050505050565b3373ffffffffffffffffffffffffffffffffffffffff166001600084815260200190815260200160002060000160009054906101000a900473ffffffffffffffffffffffffffffffffffffffff1673ffffffffffffffffffffffffffffffffffffffff1614610630576040517f08c379a000000000000000000000000000000000000000000000000000000000815260040161062790611d5e565b60405180910390fd5b8060016000848152602001908152602001600020600201541015610689576040517f08c379a000000000000000000000000000000000000000000000000000000000815260040161068090611d7e565b60405180910390fd5b600081116106cc576040517f08c379a00000000000000000000000000000000000000000000000000000000081526004016106c390611dde565b60405180910390fd5b60405180608001604052803373ffffffffffffffffffffffffffffffffffffffff1681526020016001600085815260200190815260200160002060010160009054906101000a900473ffffffffffffffffffffffffffffffffffffffff1673ffffffffffffffffffffffffffffffffffffffff168152602001828152602001428152506002600084815260200190815260200160002060008201518160000160006101000a81548173ffffffffffffffffffffffffffffffffffffffff021916908373ffffffffffffffffffffffffffffffffffffffff16021790555060208201518160010160006101000a81548173ffffffffffffffffffffffffffffffffffffffff021916908373ffffffffffffffffffffffffffffffffffffffff16021790555060408201518160020155606082015181600301559050507f65ea2d41c3502017d75e5075b1c7a6fb63fecc320b52b302c9a2618dd1bd8025336001600085815260200190815260200160002060010160009054906101000a900473ffffffffffffffffffffffffffffffffffffffff1683426040516108729493929190611ba4565b60405180910390a15050565b3373ffffffffffffffffffffffffffffffffffffffff166001600085815260200190815260200160002060010160009054906101000a900473ffffffffffffffffffffffffffffffffffffffff1673ffffffffffffffffffffffffffffffffffffffff1614610922576040517f08c379a000000000000000000000000000000000000000000000000000000000815260040161091990611d5e565b60405180910390fd5b816001600085815260200190815260200160002060020154101561097b576040517f08c379a000000000000000000000000000000000000000000000000000000000815260040161097290611dbe565b60405180910390fd5b600082116109be576040517f08c379a00000000000000000000000000000000000000000000000000000000081526004016109b590611cde565b60405180910390fd5b600081905060008090505b83811015610a0757816040516020016109e29190611b0d565b60405160208183030381529060405280519060200120915080806001019150506109c9565b5060016000858152602001908152602001600020600301548114610a60576040517f08c379a0000000000000000000000000000000000000000000000000000000008152600401610a5790611d1e565b60405180910390fd5b6001600085815260200190815260200160002060020154831415610b1b577fcc1ee4d9dc78c83030065c62bcc9b5e91d633a06b9a1dbbdc1c48d82dffd4b11604051610aab90611cbe565b60405180910390a1600060016000868152602001908152602001600020600201819055503373ffffffffffffffffffffffffffffffffffffffff166108fc849081150290604051600060405180830381858888f19350505050158015610b15573d6000803e3d6000fd5b50610bce565b8160016000868152602001908152602001600020600301819055508260016000868152602001908152602001600020600201819055507fcc1ee4d9dc78c83030065c62bcc9b5e91d633a06b9a1dbbdc1c48d82dffd4b11604051610b7e90611cfe565b60405180910390a13373ffffffffffffffffffffffffffffffffffffffff166108fc849081150290604051600060405180830381858888f19350505050158015610bcc573d6000803e3d6000fd5b505b50505050565b610bdc611414565b600260008381526020019081526020016000206040518060800160405290816000820160009054906101000a900473ffffffffffffffffffffffffffffffffffffffff1673ffffffffffffffffffffffffffffffffffffffff1673ffffffffffffffffffffffffffffffffffffffff1681526020016001820160009054906101000a900473ffffffffffffffffffffffffffffffffffffffff1673ffffffffffffffffffffffffffffffffffffffff1673ffffffffffffffffffffffffffffffffffffffff168152602001600282015481526020016003820154815250509050919050565b60608060146040519080825280601f01601f191660200182016040528015610cf85781602001600182028038833980820191505090505b50905060008090505b6014811015610d7e578060130360080260020a8473ffffffffffffffffffffffffffffffffffffffff1681610d3257fe5b0460f81b828281518110610d4257fe5b60200101907effffffffffffffffffffffffffffffffffffffffffffffffffffffffffffff1916908160001a9053508080600101915050610d01565b5080915050919050565b60006001600085815260200190815260200160002060020154905060006002600086815260200190815260200160002060010160009054906101000a900473ffffffffffffffffffffffffffffffffffffffff1673ffffffffffffffffffffffffffffffffffffffff163373ffffffffffffffffffffffffffffffffffffffff1614610e49576040517f08c379a0000000000000000000000000000000000000000000000000000000008152600401610e4090611dfe565b60405180910390fd5b83821015610e8c576040517f08c379a0000000000000000000000000000000000000000000000000000000008152600401610e8390611d9e565b60405180910390fd5b82905060008090505b84811015610ed35781604051602001610eae9190611b0d565b6040516020818303038152906040528051906020012091508080600101915050610e95565b5060016000868152602001908152602001600020600301548114610f2c576040517f08c379a0000000000000000000000000000000000000000000000000000000008152600401610f2390611d1e565b60405180910390fd5b81841415610fd1577fcc1ee4d9dc78c83030065c62bcc9b5e91d633a06b9a1dbbdc1c48d82dffd4b11604051610f6190611cbe565b60405180910390a1600060016000878152602001908152602001600020600201819055503373ffffffffffffffffffffffffffffffffffffffff166108fc859081150290604051600060405180830381858888f19350505050158015610fcb573d6000803e3d6000fd5b50611084565b8260016000878152602001908152602001600020600301819055508360016000878152602001908152602001600020600201819055507fcc1ee4d9dc78c83030065c62bcc9b5e91d633a06b9a1dbbdc1c48d82dffd4b1160405161103490611cfe565b60405180910390a13373ffffffffffffffffffffffffffffffffffffffff166108fc859081150290604051600060405180830381858888f19350505050158015611082573d6000803e3d6000fd5b505b5050505050565b60026020528060005260406000206000915090508060000160009054906101000a900473ffffffffffffffffffffffffffffffffffffffff16908060010160009054906101000a900473ffffffffffffffffffffffffffffffffffffffff16908060020154908060030154905084565b60005481565b60008082905060008090505b8481101561114b57816040516020016111269190611b0d565b604051602081830303815290604052805190602001209150808060010191505061110d565b508091505092915050565b60016020528060005260406000206000915090508060000160009054906101000a900473ffffffffffffffffffffffffffffffffffffffff16908060010160009054906101000a900473ffffffffffffffffffffffffffffffffffffffff16908060020154908060030154905084565b60008054905090565b60405180608001604052808473ffffffffffffffffffffffffffffffffffffffff1681526020018373ffffffffffffffffffffffffffffffffffffffff16815260200134815260200182815250600160008054815260200190815260200160002060008201518160000160006101000a81548173ffffffffffffffffffffffffffffffffffffffff021916908373ffffffffffffffffffffffffffffffffffffffff16021790555060208201518160010160006101000a81548173ffffffffffffffffffffffffffffffffffffffff021916908373ffffffffffffffffffffffffffffffffffffffff16021790555060408201518160020155606082015181600301559050506001600054016000819055507f192a939d1fd6927ae8aa919617244293808d87c93c9a64454eb00482428926648383348460005460405161131a959493929190611c2e565b60405180910390a1505050565b61132f611468565b600160008381526020019081526020016000206040518060800160405290816000820160009054906101000a900473ffffffffffffffffffffffffffffffffffffffff1673ffffffffffffffffffffffffffffffffffffffff1673ffffffffffffffffffffffffffffffffffffffff1681526020016001820160009054906101000a900473ffffffffffffffffffffffffffffffffffffffff1673ffffffffffffffffffffffffffffffffffffffff1673ffffffffffffffffffffffffffffffffffffffff168152602001600282015481526020016003820154815250509050919050565b6040518060800160405280600073ffffffffffffffffffffffffffffffffffffffff168152602001600073ffffffffffffffffffffffffffffffffffffffff16815260200160008152602001600081525090565b6040518060800160405280600073ffffffffffffffffffffffffffffffffffffffff168152602001600073ffffffffffffffffffffffffffffffffffffffff16815260200160008152602001600080191681525090565b6000813590506114ce81611f87565b92915050565b6000813590506114e381611f9e565b92915050565b6000813590506114f881611fb5565b92915050565b60006020828403121561151057600080fd5b600061151e848285016114bf565b91505092915050565b60008060006060848603121561153c57600080fd5b600061154a868287016114bf565b935050602061155b868287016114bf565b925050604061156c868287016114d4565b9150509250925092565b60006020828403121561158857600080fd5b6000611596848285016114e9565b91505092915050565b600080604083850312156115b257600080fd5b60006115c0858286016114e9565b92505060206115d1858286016114d4565b9150509250929050565b600080604083850312156115ee57600080fd5b60006115fc858286016114e9565b925050602061160d858286016114e9565b9150509250929050565b60008060006060848603121561162c57600080fd5b600061163a868287016114e9565b935050602061164b868287016114e9565b925050604061165c868287016114d4565b9150509250925092565b61166f81611f03565b82525050565b61167e81611ebd565b82525050565b61168d81611ebd565b82525050565b61169c81611eab565b82525050565b6116ab81611eab565b82525050565b6116ba81611ecf565b82525050565b6116c981611ecf565b82525050565b6116e06116db82611ecf565b611f6c565b82525050565b60006116f182611e8f565b6116fb8185611e9a565b935061170b818560208601611f39565b61171481611f76565b840191505092915050565b600061172c600d83611e9a565b91507f66756c6c2065786974206f6b3f000000000000000000000000000000000000006000830152602082019050919050565b600061176c601383611e9a565b91507f416d6f756e742076616c7565204572726f7232000000000000000000000000006000830152602082019050919050565b60006117ac600d83611e9a565b91507f706172742065786974206f6b3f000000000000000000000000000000000000006000830152602082019050919050565b60006117ec601483611e9a565b91507f507265696d616765207665726679206572726f720000000000000000000000006000830152602082019050919050565b600061182c601883611e9a565b91507f5061796572204164647265737320697320496e76616c696400000000000000006000830152602082019050919050565b600061186c601483611e9a565b91507f53656e6465722041646472657373204572726f720000000000000000000000006000830152602082019050919050565b60006118ac601283611e9a565b91507f72656d61696e2076616c7565204572726f7200000000000000000000000000006000830152602082019050919050565b60006118ec601783611e9a565b91507f496e76616c6964204368616c6c656e6765204572726f720000000000000000006000830152602082019050919050565b600061192c601283611e9a565b91507f416d6f756e742076616c7565204572726f7200000000000000000000000000006000830152602082019050919050565b600061196c601383611e9a565b91507f72656d61696e2076616c7565204572726f7232000000000000000000000000006000830152602082019050919050565b60006119ac601883611e9a565b91507f4368616c6c656e6765722041646472657373204572726f7200000000000000006000830152602082019050919050565b60006119ec602183611e9a565b91507f42616c616e6365206973206e6f7420656e6f75676820746f2066696e616c697a60008301527f65000000000000000000000000000000000000000000000000000000000000006020830152604082019050919050565b608082016000820151611a5b6000850182611693565b506020820151611a6e6020850182611693565b506040820151611a816040850182611aef565b506060820151611a9460608501826116b1565b50505050565b608082016000820151611ab06000850182611675565b506020820151611ac36020850182611693565b506040820151611ad66040850182611aef565b506060820151611ae96060850182611aef565b50505050565b611af881611ef9565b82525050565b611b0781611ef9565b82525050565b6000611b1982846116cf565b60208201915081905092915050565b6000606082019050611b3d6000830186611666565b611b4a60208301856116a2565b611b576040830184611afe565b949350505050565b6000608082019050611b746000830187611684565b611b8160208301866116a2565b611b8e6040830185611afe565b611b9b6060830184611afe565b95945050505050565b6000608082019050611bb96000830187611666565b611bc660208301866116a2565b611bd36040830185611afe565b611be06060830184611afe565b95945050505050565b6000608082019050611bfe60008301876116a2565b611c0b60208301866116a2565b611c186040830185611afe565b611c2560608301846116c0565b95945050505050565b600060a082019050611c4360008301886116a2565b611c5060208301876116a2565b611c5d6040830186611afe565b611c6a60608301856116c0565b611c776080830184611afe565b9695505050505050565b6000602082019050611c9660008301846116c0565b92915050565b60006020820190508181036000830152611cb681846116e6565b905092915050565b60006020820190508181036000830152611cd78161171f565b9050919050565b60006020820190508181036000830152611cf78161175f565b9050919050565b60006020820190508181036000830152611d178161179f565b9050919050565b60006020820190508181036000830152611d37816117df565b9050919050565b60006020820190508181036000830152611d578161181f565b9050919050565b60006020820190508181036000830152611d778161185f565b9050919050565b60006020820190508181036000830152611d978161189f565b9050919050565b60006020820190508181036000830152611db7816118df565b9050919050565b60006020820190508181036000830152611dd78161191f565b9050919050565b60006020820190508181036000830152611df78161195f565b9050919050565b60006020820190508181036000830152611e178161199f565b9050919050565b60006020820190508181036000830152611e37816119df565b9050919050565b6000608082019050611e536000830184611a45565b92915050565b6000608082019050611e6e6000830184611a9a565b92915050565b6000602082019050611e896000830184611afe565b92915050565b600081519050919050565b600082825260208201905092915050565b6000611eb682611ed9565b9050919050565b6000611ec882611ed9565b9050919050565b6000819050919050565b600073ffffffffffffffffffffffffffffffffffffffff82169050919050565b6000819050919050565b6000611f0e82611f15565b9050919050565b6000611f2082611f27565b9050919050565b6000611f3282611ed9565b9050919050565b60005b83811015611f57578082015181840152602081019050611f3c565b83811115611f66576000848401525b50505050565b6000819050919050565b6000601f19601f8301169050919050565b611f9081611eab565b8114611f9b57600080fd5b50565b611fa781611ecf565b8114611fb257600080fd5b50565b611fbe81611ef9565b8114611fc957600080fd5b5056fea265627a7a72305820281fe2d4b5ef899c39523e3ec94452d9a7b08224242f79f8474052c430af28956c6578706572696d656e74616cf50037",
  "source": "pragma solidity ^0.5.0;\r\npragma experimental ABIEncoderV2;\r\n\r\nimport \"./SafeMath.sol\";\r\n\r\n\r\ncontract eocContract{\r\n\r\n    event commited(address payer, address payee, uint256 value, bytes32 preimage, uint256 commitNonce);\r\n    event returning(string result);\r\n    event payerExitRequested(address payer, address payee, uint256 remain, uint256 requestTime);\r\n    event finalizePayerExit(address payer, address payee, uint256 value);\r\n    event payerExitFailed(address payer, address payee, uint256 value, uint256 remainTime);\r\n\r\n    //event request_getcalc_result(bytes32 calc);\r\n    using SafeMath for uint256;\r\n\r\n    uint256 public commitNonce = 1;\r\n    mapping(uint256 => commitStruct) public commits;\r\n    mapping(uint256 => payerExitRequest) public payerExitQueue;\r\n\r\n    struct commitStruct{\r\n        address payer;\r\n        address payee;\r\n        uint256 amount;\r\n        bytes32 preimage;\r\n\r\n    }\r\n\r\n    struct payerExitRequest{\r\n        address payable payer;\r\n        address payee;\r\n        uint256 remain;\r\n        uint256 requestTime;\r\n    }\r\n\r\n\r\n    function commit(address payer, address payee, bytes32 preimage) public payable\r\n    {\r\n        commits[commitNonce] = commitStruct(payer, payee, msg.value, preimage);\r\n        //commitNonce = commitNonce.add(uint256(1));\r\n        commitNonce = commitNonce + 1;\r\n        emit commited(payer, payee, msg.value, preimage, commitNonce);\r\n    }\r\n\r\n    // for test\r\n    function getcommit(uint256 nonce) public view returns(commitStruct memory){\r\n        return commits[nonce];\r\n    }\r\n\r\n    // for test\r\n    function getcommitNonce() public view returns(uint256){\r\n        return commitNonce;\r\n    }\r\n\r\n    constructor() public\r\n    {\r\n        commitNonce = 1;\r\n    }\r\n\r\n    // Address to string for test \r\n    function AddressToString(address x) public returns (string memory)\r\n    {\r\n        bytes memory b = new bytes(20);\r\n        for (uint i = 0; i < 20; i++)\r\n            b[i] = byte(uint8(uint(x) / (2**(8*(19 - i)))));\r\n        return string(b);\r\n    }\r\n\r\n    // for test  proof \r\n    function getcalc_proof(uint256 received, bytes32 proof) public view returns(bytes32)\r\n    {\r\n        bytes32 calc_proof;\r\n        calc_proof = proof;\r\n        for (uint i = 0; i < received ; i++) {\r\n            calc_proof = keccak256(abi.encodePacked(calc_proof));\r\n        }\r\n        return calc_proof;\r\n    }\r\n\r\n    function startPayeeExit(uint256 nonce, uint256 received, bytes32 proof) public payable\r\n    {\r\n        // address sender = msg.sender;\r\n        require((commits[nonce].payee == msg.sender), \"Sender Address Error\");\r\n        require(commits[nonce].amount >= received,\"Amount value Error\");\r\n        require(received > 0,\"Amount value Error2\");\r\n        //require(depositExits[nonce].state == ExitState.NonExistent);\r\n        bytes32 calc_proof;\r\n        calc_proof = proof;\r\n        for (uint i = 0; i < received ; i++) {\r\n            calc_proof = keccak256(abi.encodePacked(calc_proof));\r\n        }\r\n\r\n        // verify preimage with commited preimage\r\n        require(calc_proof == commits[nonce].preimage, \"Preimage verfy error\");\r\n        if(received == commits[nonce].amount){\r\n            \r\n            emit returning(\"full exit ok?\");\r\n            //delete commits[nonce]\r\n            commits[nonce].amount = 0;\r\n            msg.sender.transfer(received);\r\n        }\r\n        else{\r\n            commits[nonce].preimage = proof;\r\n            commits[nonce].amount = received;\r\n            emit returning(\"part exit ok?\");\r\n            msg.sender.transfer(received);\r\n        }\r\n    }\r\n\r\n\r\n    function startPayerExit(uint256 nonce, uint256 remain) public {\r\n        //  \r\n        require((commits[nonce].payer == msg.sender), \"Sender Address Error\");\r\n        require(commits[nonce].amount >= remain,\"remain value Error\");\r\n        require(remain > 0,\"remain value Error2\");\r\n\r\n        //  , Queue  \r\n        payerExitQueue[nonce] = payerExitRequest(msg.sender, commits[nonce].payee, remain, block.timestamp);\r\n\r\n        // Payer Exit Queue  nonce   .\r\n        emit payerExitRequested(msg.sender, commits[nonce].payee, remain, block.timestamp);\r\n    }\r\n\r\n\r\n    function getPayerExitQueue(uint256 nonce) public view returns(payerExitRequest memory){\r\n        return payerExitQueue[nonce];\r\n    }\r\n\r\n    // 1   Exit \r\n    function finalize(uint256 nonce) public payable{\r\n        address payable t_payer = payerExitQueue[nonce].payer;\r\n        address t_payee = payerExitQueue[nonce].payee;\r\n        uint256 t_remain = payerExitQueue[nonce].remain;\r\n        uint256 t_balance = commits[nonce].amount;\r\n\r\n        uint256 pastTime = block.timestamp - payerExitQueue[nonce].requestTime;\r\n        uint256 challengePeriod = 1 weeks;\r\n\r\n        require(t_payer == msg.sender,\"Payer Address is Invalid\");\r\n        require(t_balance - t_remain >= 0, \"Balance is not enough to finalize\");\r\n\r\n\r\n        if(pastTime >= challengePeriod){\r\n            t_payer.transfer(t_remain);\r\n            emit finalizePayerExit(t_payer, t_payee, t_remain);\r\n        }\r\n\r\n        else{\r\n            uint256 remainTime = challengePeriod - pastTime;\r\n            emit payerExitFailed(t_payer, t_payee, t_remain, remainTime);\r\n        }\r\n    }\r\n\r\n\r\n\r\n    // Queue  Exit  Challenge   \r\n    function challengeExit(uint nonce, uint256 received, bytes32 proof) public payable {\r\n        \r\n        //uint256 t_remain = payerExitQueue[nonce].remain;\r\n        uint256 t_deposit = commits[nonce].amount;\r\n        bytes32 calc_proof;\r\n\r\n        // Challenger & Value Validation\r\n        require(msg.sender == payerExitQueue[nonce].payee,\"Challenger Address Error\");\r\n        require(t_deposit >= received, \"Invalid Challenge Error\");\r\n\r\n        // Challenge proof Validation\r\n        calc_proof = proof;\r\n        for (uint i = 0; i < received ; i++) {\r\n            calc_proof = keccak256(abi.encodePacked(calc_proof));\r\n        }\r\n\r\n\r\n        require(calc_proof == commits[nonce].preimage, \"Preimage verfy error\");\r\n        \r\n        if(received == t_deposit){\r\n            emit returning(\"full exit ok?\");\r\n            commits[nonce].amount = 0;\r\n            msg.sender.transfer(received);\r\n            // deleteCommit(commits[nonce]);\r\n        }\r\n\r\n        else{\r\n            commits[nonce].preimage = proof;\r\n            commits[nonce].amount = received;\r\n            emit returning(\"part exit ok?\");\r\n            msg.sender.transfer(received);\r\n        }\r\n\r\n    }\r\n\r\n\r\n}\r\n\r\n\r\n\r\n",
  "sourcePath": "C:/Users/Linear/Contract/contracts/Contract.sol",
  "compiler": {
    "name": "solc",
    "version": "0.5.8+commit.23d335f2.Emscripten.clang"
  },
  "schemaVersion": "3.0.14",
  "updatedAt": "2019-10-14T12:34:08.637Z",
  "devdoc": {
    "methods": {}
  },
  "userdoc": {
    "methods": {}
  }
}